{
  "_format": "hh-sol-artifact-1",
  "contractName": "GalileoJackpot",
  "sourceName": "contracts/GalileoJackpot.sol",
  "abi": [
    {
      "inputs": [],
      "stateMutability": "nonpayable",
      "type": "constructor"
    },
    {
      "inputs": [],
      "name": "InsufficientDeposit",
      "type": "error"
    },
    {
      "inputs": [],
      "name": "InvalidAddress",
      "type": "error"
    },
    {
      "inputs": [],
      "name": "NotEnoughTickets",
      "type": "error"
    },
    {
      "inputs": [
        {
          "internalType": "address",
          "name": "owner",
          "type": "address"
        }
      ],
      "name": "OwnableInvalidOwner",
      "type": "error"
    },
    {
      "inputs": [
        {
          "internalType": "address",
          "name": "account",
          "type": "address"
        }
      ],
      "name": "OwnableUnauthorizedAccount",
      "type": "error"
    },
    {
      "inputs": [],
      "name": "ReentrancyGuardReentrantCall",
      "type": "error"
    },
    {
      "inputs": [],
      "name": "RoundAlreadyCompleted",
      "type": "error"
    },
    {
      "inputs": [],
      "name": "RoundNotFinished",
      "type": "error"
    },
    {
      "inputs": [],
      "name": "RoundNotStarted",
      "type": "error"
    },
    {
      "inputs": [],
      "name": "TransferFailed",
      "type": "error"
    },
    {
      "inputs": [],
      "name": "ZeroRange",
      "type": "error"
    },
    {
      "anonymous": false,
      "inputs": [
        {
          "indexed": true,
          "internalType": "address",
          "name": "historyContract",
          "type": "address"
        }
      ],
      "name": "HistoryContractUpdated",
      "type": "event"
    },
    {
      "anonymous": false,
      "inputs": [
        {
          "indexed": true,
          "internalType": "uint256",
          "name": "roundId",
          "type": "uint256"
        },
        {
          "indexed": false,
          "internalType": "address",
          "name": "treasury",
          "type": "address"
        },
        {
          "indexed": false,
          "internalType": "uint256",
          "name": "amount",
          "type": "uint256"
        }
      ],
      "name": "OwnerFeeCollected",
      "type": "event"
    },
    {
      "anonymous": false,
      "inputs": [
        {
          "indexed": true,
          "internalType": "address",
          "name": "previousOwner",
          "type": "address"
        },
        {
          "indexed": true,
          "internalType": "address",
          "name": "newOwner",
          "type": "address"
        }
      ],
      "name": "OwnershipTransferred",
      "type": "event"
    },
    {
      "anonymous": false,
      "inputs": [
        {
          "indexed": true,
          "internalType": "uint256",
          "name": "roundId",
          "type": "uint256"
        },
        {
          "indexed": false,
          "internalType": "address",
          "name": "winner",
          "type": "address"
        },
        {
          "indexed": false,
          "internalType": "uint256",
          "name": "winningTicketId",
          "type": "uint256"
        },
        {
          "indexed": false,
          "internalType": "uint256",
          "name": "prize",
          "type": "uint256"
        }
      ],
      "name": "RoundCompleted",
      "type": "event"
    },
    {
      "anonymous": false,
      "inputs": [
        {
          "indexed": true,
          "internalType": "uint256",
          "name": "roundId",
          "type": "uint256"
        },
        {
          "indexed": false,
          "internalType": "uint256",
          "name": "startTime",
          "type": "uint256"
        },
        {
          "indexed": false,
          "internalType": "uint256",
          "name": "endTime",
          "type": "uint256"
        }
      ],
      "name": "RoundStarted",
      "type": "event"
    },
    {
      "anonymous": false,
      "inputs": [
        {
          "indexed": true,
          "internalType": "address",
          "name": "buyer",
          "type": "address"
        },
        {
          "indexed": false,
          "internalType": "uint256",
          "name": "ticketId",
          "type": "uint256"
        },
        {
          "indexed": false,
          "internalType": "uint256",
          "name": "roundId",
          "type": "uint256"
        },
        {
          "indexed": false,
          "internalType": "uint256",
          "name": "timestamp",
          "type": "uint256"
        }
      ],
      "name": "TicketPurchased",
      "type": "event"
    },
    {
      "inputs": [],
      "name": "MIN_DEPOSIT",
      "outputs": [
        {
          "internalType": "uint256",
          "name": "",
          "type": "uint256"
        }
      ],
      "stateMutability": "view",
      "type": "function"
    },
    {
      "inputs": [],
      "name": "OWNER_FEE_PERCENT",
      "outputs": [
        {
          "internalType": "uint256",
          "name": "",
          "type": "uint256"
        }
      ],
      "stateMutability": "view",
      "type": "function"
    },
    {
      "inputs": [],
      "name": "ROUND_DURATION",
      "outputs": [
        {
          "internalType": "uint256",
          "name": "",
          "type": "uint256"
        }
      ],
      "stateMutability": "view",
      "type": "function"
    },
    {
      "inputs": [],
      "name": "buyTickets",
      "outputs": [],
      "stateMutability": "payable",
      "type": "function"
    },
    {
      "inputs": [],
      "name": "completeRound",
      "outputs": [],
      "stateMutability": "nonpayable",
      "type": "function"
    },
    {
      "inputs": [],
      "name": "currentRoundId",
      "outputs": [
        {
          "internalType": "uint256",
          "name": "",
          "type": "uint256"
        }
      ],
      "stateMutability": "view",
      "type": "function"
    },
    {
      "inputs": [],
      "name": "emergencyCompleteRound",
      "outputs": [],
      "stateMutability": "nonpayable",
      "type": "function"
    },
    {
      "inputs": [],
      "name": "getCurrentRoundInfo",
      "outputs": [
        {
          "internalType": "uint256",
          "name": "id",
          "type": "uint256"
        },
        {
          "internalType": "uint256",
          "name": "startTime",
          "type": "uint256"
        },
        {
          "internalType": "uint256",
          "name": "endTime",
          "type": "uint256"
        },
        {
          "internalType": "uint256",
          "name": "totalPool",
          "type": "uint256"
        },
        {
          "internalType": "uint256",
          "name": "numTickets",
          "type": "uint256"
        },
        {
          "internalType": "bool",
          "name": "isActive",
          "type": "bool"
        },
        {
          "internalType": "uint256",
          "name": "timeLeft",
          "type": "uint256"
        }
      ],
      "stateMutability": "view",
      "type": "function"
    },
    {
      "inputs": [
        {
          "internalType": "uint256",
          "name": "limit",
          "type": "uint256"
        }
      ],
      "name": "getRoundHistory",
      "outputs": [
        {
          "components": [
            {
              "internalType": "uint256",
              "name": "id",
              "type": "uint256"
            },
            {
              "internalType": "uint256",
              "name": "startTime",
              "type": "uint256"
            },
            {
              "internalType": "uint256",
              "name": "endTime",
              "type": "uint256"
            },
            {
              "internalType": "uint256",
              "name": "totalPool",
              "type": "uint256"
            },
            {
              "internalType": "address",
              "name": "winner",
              "type": "address"
            },
            {
              "internalType": "uint256",
              "name": "winningTicketId",
              "type": "uint256"
            },
            {
              "internalType": "bool",
              "name": "completed",
              "type": "bool"
            }
          ],
          "internalType": "struct GalileoJackpot.Round[]",
          "name": "",
          "type": "tuple[]"
        }
      ],
      "stateMutability": "view",
      "type": "function"
    },
    {
      "inputs": [
        {
          "internalType": "uint256",
          "name": "roundId",
          "type": "uint256"
        }
      ],
      "name": "getRoundTickets",
      "outputs": [
        {
          "internalType": "uint256[]",
          "name": "",
          "type": "uint256[]"
        }
      ],
      "stateMutability": "view",
      "type": "function"
    },
    {
      "inputs": [
        {
          "internalType": "address",
          "name": "user",
          "type": "address"
        }
      ],
      "name": "getUserTickets",
      "outputs": [
        {
          "internalType": "uint256[]",
          "name": "",
          "type": "uint256[]"
        }
      ],
      "stateMutability": "view",
      "type": "function"
    },
    {
      "inputs": [],
      "name": "historyContract",
      "outputs": [
        {
          "internalType": "address",
          "name": "",
          "type": "address"
        }
      ],
      "stateMutability": "view",
      "type": "function"
    },
    {
      "inputs": [],
      "name": "owner",
      "outputs": [
        {
          "internalType": "address",
          "name": "",
          "type": "address"
        }
      ],
      "stateMutability": "view",
      "type": "function"
    },
    {
      "inputs": [],
      "name": "renounceOwnership",
      "outputs": [],
      "stateMutability": "nonpayable",
      "type": "function"
    },
    {
      "inputs": [
        {
          "internalType": "uint256",
          "name": "",
          "type": "uint256"
        },
        {
          "internalType": "uint256",
          "name": "",
          "type": "uint256"
        }
      ],
      "name": "roundTickets",
      "outputs": [
        {
          "internalType": "uint256",
          "name": "",
          "type": "uint256"
        }
      ],
      "stateMutability": "view",
      "type": "function"
    },
    {
      "inputs": [
        {
          "internalType": "uint256",
          "name": "",
          "type": "uint256"
        }
      ],
      "name": "rounds",
      "outputs": [
        {
          "internalType": "uint256",
          "name": "id",
          "type": "uint256"
        },
        {
          "internalType": "uint256",
          "name": "startTime",
          "type": "uint256"
        },
        {
          "internalType": "uint256",
          "name": "endTime",
          "type": "uint256"
        },
        {
          "internalType": "uint256",
          "name": "totalPool",
          "type": "uint256"
        },
        {
          "internalType": "address",
          "name": "winner",
          "type": "address"
        },
        {
          "internalType": "uint256",
          "name": "winningTicketId",
          "type": "uint256"
        },
        {
          "internalType": "bool",
          "name": "completed",
          "type": "bool"
        }
      ],
      "stateMutability": "view",
      "type": "function"
    },
    {
      "inputs": [
        {
          "internalType": "address",
          "name": "_historyContract",
          "type": "address"
        }
      ],
      "name": "setHistoryContract",
      "outputs": [],
      "stateMutability": "nonpayable",
      "type": "function"
    },
    {
      "inputs": [
        {
          "internalType": "address",
          "name": "_treasury",
          "type": "address"
        }
      ],
      "name": "setTreasury",
      "outputs": [],
      "stateMutability": "nonpayable",
      "type": "function"
    },
    {
      "inputs": [],
      "name": "startRoundManually",
      "outputs": [],
      "stateMutability": "nonpayable",
      "type": "function"
    },
    {
      "inputs": [],
      "name": "ticketCounter",
      "outputs": [
        {
          "internalType": "uint256",
          "name": "",
          "type": "uint256"
        }
      ],
      "stateMutability": "view",
      "type": "function"
    },
    {
      "inputs": [
        {
          "internalType": "uint256",
          "name": "",
          "type": "uint256"
        }
      ],
      "name": "tickets",
      "outputs": [
        {
          "internalType": "uint256",
          "name": "id",
          "type": "uint256"
        },
        {
          "internalType": "address",
          "name": "owner",
          "type": "address"
        },
        {
          "internalType": "uint256",
          "name": "roundId",
          "type": "uint256"
        },
        {
          "internalType": "uint256",
          "name": "timestamp",
          "type": "uint256"
        }
      ],
      "stateMutability": "view",
      "type": "function"
    },
    {
      "inputs": [
        {
          "internalType": "address",
          "name": "newOwner",
          "type": "address"
        }
      ],
      "name": "transferOwnership",
      "outputs": [],
      "stateMutability": "nonpayable",
      "type": "function"
    },
    {
      "inputs": [],
      "name": "treasury",
      "outputs": [
        {
          "internalType": "address",
          "name": "",
          "type": "address"
        }
      ],
      "stateMutability": "view",
      "type": "function"
    },
    {
      "inputs": [
        {
          "internalType": "address",
          "name": "",
          "type": "address"
        },
        {
          "internalType": "uint256",
          "name": "",
          "type": "uint256"
        }
      ],
      "name": "userTickets",
      "outputs": [
        {
          "internalType": "uint256",
          "name": "",
          "type": "uint256"
        }
      ],
      "stateMutability": "view",
      "type": "function"
    }
  ],
  "bytecode": "0x60806040526001600255600060035534801561001a57600080fd5b50338061004157604051631e4fbdf760e01b81526000600482015260240160405180910390fd5b61004a81610118565b5060018080556040805160e0810182526002805480835260006020808501828152858701838152606087018481526080880185815260a0890186815260c08a0187815297875260049586905299862098518955925199880199909955519486019490945595516003850155915194830180546001600160a01b0319166001600160a01b039687161790559251600583015591516006909101805460ff19169115159190911790555416600880546001600160a01b0319166001600160a01b0392909216919091179055610168565b600080546001600160a01b038381166001600160a01b0319831681178455604051919092169283917f8be0079c531659141344cd1fd0a4f28419497f9722a3daafe3b4186f6b6457e09190a35050565b6119da806101776000396000f3fe60806040526004361061014b5760003560e01c80638da5cb5b116100b6578063cc1589211161006f578063cc1589211461047c578063cdfdf7e21461049c578063cf260baf146104b1578063e1e158a5146104d1578063f0f44260146104ec578063f2fde38b1461050c57600080fd5b80638da5cb5b146103de5780639506a4ec146103fc5780639bb3503d146104295780639cbe5efd14610449578063a8a3221e1461045f578063c81998261461047457600080fd5b80637169c711116101085780637169c7111461028d578063747dff42146102ad5780638274627f146102f95780638be485471461030e5780638c4d59d0146103235780638c65c81f1461033957600080fd5b80630484a22f1461015057806304ad675d1461018657806350b44712146101a657806361d027b31461021a5780636641ea0814610252578063715018a614610276575b600080fd5b34801561015c57600080fd5b5061017061016b366004611766565b61052c565b60405161017d9190611781565b60405180910390f35b34801561019257600080fd5b506101706101a13660046117c5565b610598565b3480156101b257600080fd5b506101f26101c13660046117c5565b600560205260009081526040902080546001820154600283015460039093015491926001600160a01b039091169184565b604080519485526001600160a01b03909316602085015291830152606082015260800161017d565b34801561022657600080fd5b5060085461023a906001600160a01b031681565b6040516001600160a01b03909116815260200161017d565b34801561025e57600080fd5b5061026861012c81565b60405190815260200161017d565b34801561028257600080fd5b5061028b6105f8565b005b34801561029957600080fd5b506102686102a83660046117de565b61060c565b3480156102b957600080fd5b506102c261063d565b6040805197885260208801969096529486019390935260608501919091526080840152151560a083015260c082015260e00161017d565b34801561030557600080fd5b5061028b6106e0565b34801561031a57600080fd5b5061028b610b09565b34801561032f57600080fd5b5061026860035481565b34801561034557600080fd5b5061039e6103543660046117c5565b600460208190526000918252604090912080546001820154600283015460038401549484015460058501546006909501549395929491936001600160a01b03909116919060ff1687565b6040805197885260208801969096529486019390935260608501919091526001600160a01b0316608084015260a0830152151560c082015260e00161017d565b3480156103ea57600080fd5b506000546001600160a01b031661023a565b34801561040857600080fd5b5061041c6104173660046117c5565b610f5e565b60405161017d9190611800565b34801561043557600080fd5b5061028b610444366004611766565b61114c565b34801561045557600080fd5b5061026860025481565b34801561046b57600080fd5b50610268600581565b61028b6111c5565b34801561048857600080fd5b5060095461023a906001600160a01b031681565b3480156104a857600080fd5b5061028b611454565b3480156104bd57600080fd5b506102686104cc36600461188d565b61154b565b3480156104dd57600080fd5b50610268662386f26fc1000081565b3480156104f857600080fd5b5061028b610507366004611766565b611567565b34801561051857600080fd5b5061028b610527366004611766565b6115b8565b6001600160a01b03811660009081526007602090815260409182902080548351818402810184019094528084526060939283018282801561058c57602002820191906000526020600020905b815481526020019060010190808311610578575b50505050509050919050565b60008181526006602090815260409182902080548351818402810184019094528084526060939283018282801561058c57602002820191906000526020600020908154815260200190600101908083116105785750505050509050919050565b6106006115fb565b61060a6000611628565b565b6006602052816000526040600020818154811061062857600080fd5b90600052602060002001600091509150505481565b6000806000806000806000806004600060025481526020019081526020016000209050600080826001015411801561067a5750600682015460ff16155b9050600081801561068e5750826002015442105b156106a6574283600201546106a391906118cd565b90505b825460018401546002808601546003909601549054600090815260066020526040902054929d919c50949a50939850965090945092509050565b6106e86115fb565b6002546000908152600460205260409020600681015460ff161561071f57604051633e3a941b60e11b815260040160405180910390fd5b8060010154600003610744576040516323a71b8760e21b815260040160405180910390fd5b6002805460009081526006602052604090205410156107765760405163a8d8f34960e01b815260040160405180910390fd5b6006808201805460ff19166001179055600254600090815260209190915260408120546107a290611678565b9050600060066000600254815260200190815260200160002082815481106107cc576107cc6118e0565b600091825260208083209091015480835260059182905260408320600101546004870180546001600160a01b0319166001600160a01b0390921691821790558683018290556003870154919450929160649161082891906118f6565b6108329190611923565b9050600081866003015461084691906118cd565b6009549091506001600160a01b0316156108d2576009548654604051635ce63c7560e11b815260048101919091526001600160a01b03858116602483015260448201879052606482018490529091169063b9cc78ea90608401600060405180830381600087803b1580156108b957600080fd5b505af11580156108cd573d6000803e3d6000fd5b505050505b600280549060006108e283611937565b90915550506040805160e0810182526002805480835260006020808501828152858701838152606087018481526080880185815260a0890186815260c08a018781529787526004958690528a872099518a55935160018a015591519688019690965594516003870155935190850180546001600160a01b0319166001600160a01b039283161790559251600585015590516006909301805460ff191693151593909317909255600854925191921690849060006040518083038185875af1925050503d80600081146109d0576040519150601f19603f3d011682016040523d82523d6000602084013e6109d5565b606091505b50509050806109f7576040516312171d8360e31b815260040160405180910390fd5b6000846001600160a01b03168360405160006040518083038185875af1925050503d8060008114610a44576040519150601f19603f3d011682016040523d82523d6000602084013e610a49565b606091505b5050905080610a6b576040516312171d8360e31b815260040160405180910390fd5b8754600854604080516001600160a01b039092168252602082018790527fed1c7c79dbd4938e6495c716b5f244d9ed315871a4455a1f46fbbf8090b43cc9910160405180910390a28754604080516001600160a01b0388168152602081018990529081018590527f1901cd171c04e8157b30c71ff94388f4eda84b287b8e58b357b408fe85916da09060600160405180910390a25050505050505050565b610b1161170b565b6002546000908152600460205260409020600681015460ff1615610b4857604051633e3a941b60e11b815260040160405180910390fd5b8060010154600003610b6d576040516323a71b8760e21b815260040160405180910390fd5b8060020154421015610b92576040516358e2bd7f60e01b815260040160405180910390fd5b600280546000908152600660205260409020541015610bc45760405163a8d8f34960e01b815260040160405180910390fd5b6006808201805460ff1916600117905560025460009081526020919091526040812054610bf090611678565b905060006006600060025481526020019081526020016000208281548110610c1a57610c1a6118e0565b600091825260208083209091015480835260059182905260408320600101546004870180546001600160a01b0319166001600160a01b03909216918217905586830182905560038701549194509291606491610c7691906118f6565b610c809190611923565b90506000818660030154610c9491906118cd565b6009549091506001600160a01b031615610d20576009548654604051635ce63c7560e11b815260048101919091526001600160a01b03858116602483015260448201879052606482018490529091169063b9cc78ea90608401600060405180830381600087803b158015610d0757600080fd5b505af1158015610d1b573d6000803e3d6000fd5b505050505b60028054906000610d3083611937565b90915550506040805160e0810182526002805480835260006020808501828152858701838152606087018481526080880185815260a0890186815260c08a018781529787526004958690528a872099518a55935160018a015591519688019690965594516003870155935190850180546001600160a01b0319166001600160a01b039283161790559251600585015590516006909301805460ff191693151593909317909255600854925191921690849060006040518083038185875af1925050503d8060008114610e1e576040519150601f19603f3d011682016040523d82523d6000602084013e610e23565b606091505b5050905080610e45576040516312171d8360e31b815260040160405180910390fd5b6000846001600160a01b03168360405160006040518083038185875af1925050503d8060008114610e92576040519150601f19603f3d011682016040523d82523d6000602084013e610e97565b606091505b5050905080610eb9576040516312171d8360e31b815260040160405180910390fd5b8754600854604080516001600160a01b039092168252602082018790527fed1c7c79dbd4938e6495c716b5f244d9ed315871a4455a1f46fbbf8090b43cc9910160405180910390a28754604080516001600160a01b0388168152602081018990529081018590527f1901cd171c04e8157b30c71ff94388f4eda84b287b8e58b357b408fe85916da09060600160405180910390a2505050505050505061060a60018055565b6060600060015b600254811015610fa95760008181526004602052604090206006015460ff1615610f975781610f9381611937565b9250505b80610fa181611937565b915050610f65565b506000610fb68483611735565b905060008167ffffffffffffffff811115610fd357610fd3611950565b60405190808252806020026020018201604052801561104f57816020015b61103c6040518060e001604052806000815260200160008152602001600081526020016000815260200160006001600160a01b03168152602001600081526020016000151581525090565b815260200190600190039081610ff15790505b509050600080600160025461106491906118cd565b90505b60008111801561107657508382105b156111415760008181526004602052604090206006015460ff161561112f57600081815260046020818152604092839020835160e0810185528154815260018201549281019290925260028101549382019390935260038301546060820152908201546001600160a01b03166080820152600582015460a082015260069091015460ff16151560c08201528351849084908110611115576111156118e0565b6020026020010181905250818061112b90611937565b9250505b8061113981611966565b915050611067565b509095945050505050565b6111546115fb565b6001600160a01b03811661117b5760405163e6c4247b60e01b815260040160405180910390fd5b600980546001600160a01b0319166001600160a01b0383169081179091556040517f0e718441e2c8ed8399d302c4091ea86c90cd23783c3c1f299b278a8eefa8fd1490600090a250565b6111cd61170b565b662386f26fc100003410156111f55760405163070f6eed60e11b815260040160405180910390fd5b60025460009081526004602052604090206006015460ff161561122b57604051633e3a941b60e11b815260040160405180910390fd5b600061123e662386f26fc1000034611923565b905060005b8181101561135f576003805490600061125b83611937565b9091555050604080516080810182526003805480835233602080850182815260028054878901908152426060808a018281526000988952600587528b89209a518b5594516001808c0180546001600160a01b0319166001600160a01b039093169290921790915592518a8501559351988801989098558154865260068452888620875481548084018355918852858820909101558486526007845288862087548154928301825590875295849020019490945593549254865193845290830152938101929092527f96541f70da731142b18e96f1def4d2a7733deb7d784723106d52c1d906d4c67a910160405180910390a28061135781611937565b915050611243565b506002546000908152600460205260408120600301805434929061138490849061197d565b909155505060028054600090815260066020526040902054108015906113bc5750600254600090815260046020526040902060010154155b1561144a5760025460009081526004602052604090204260019091018190556113e89061012c9061197d565b6002805460009081526004602090815260408083208401949094558254808352918490206001810154930154845193845290830152917fa359b664a68acd8839e42112eb50eff3408165e15074fde89ddb58a0db2e691d910160405180910390a25b5061060a60018055565b61145c6115fb565b6002546000908152600460205260409020600101541561148f57604051633e3a941b60e11b815260040160405180910390fd5b6002805460009081526006602052604090205410156114c15760405163a8d8f34960e01b815260040160405180910390fd5b60025460009081526004602052604090204260019091018190556114e89061012c9061197d565b6002805460009081526004602090815260408083208401949094558254808352918490206001810154930154845193845290830152917fa359b664a68acd8839e42112eb50eff3408165e15074fde89ddb58a0db2e691d910160405180910390a2565b6007602052816000526040600020818154811061062857600080fd5b61156f6115fb565b6001600160a01b0381166115965760405163e6c4247b60e01b815260040160405180910390fd5b600880546001600160a01b0319166001600160a01b0392909216919091179055565b6115c06115fb565b6001600160a01b0381166115ef57604051631e4fbdf760e01b8152600060048201526024015b60405180910390fd5b6115f881611628565b50565b6000546001600160a01b0316331461060a5760405163118cdaa760e01b81523360048201526024016115e6565b600080546001600160a01b038381166001600160a01b0319831681178455604051919092169283917f8be0079c531659141344cd1fd0a4f28419497f9722a3daafe3b4186f6b6457e09190a35050565b60008160000361169b576040516305a8a1a960e11b815260040160405180910390fd5b600042446116aa6001436118cd565b6040805160208101949094528301919091524060608083019190915233901b6bffffffffffffffffffffffff1916608082015260940160408051601f19818403018152919052805160209091012090506117048382611990565b9392505050565b60026001540361172e57604051633ee5aeb560e01b815260040160405180910390fd5b6002600155565b60008282188284100282185b90505b92915050565b80356001600160a01b038116811461176157600080fd5b919050565b60006020828403121561177857600080fd5b6117418261174a565b6020808252825182820181905260009190848201906040850190845b818110156117b95783518352928401929184019160010161179d565b50909695505050505050565b6000602082840312156117d757600080fd5b5035919050565b600080604083850312156117f157600080fd5b50508035926020909101359150565b602080825282518282018190526000919060409081850190868401855b828110156118805781518051855286810151878601528581015186860152606080820151908601526080808201516001600160a01b03169086015260a0808201519086015260c09081015115159085015260e0909301929085019060010161181d565b5091979650505050505050565b600080604083850312156118a057600080fd5b6118a98361174a565b946020939093013593505050565b634e487b7160e01b600052601160045260246000fd5b81810381811115611744576117446118b7565b634e487b7160e01b600052603260045260246000fd5b8082028115828204841417611744576117446118b7565b634e487b7160e01b600052601260045260246000fd5b6000826119325761193261190d565b500490565b600060018201611949576119496118b7565b5060010190565b634e487b7160e01b600052604160045260246000fd5b600081611975576119756118b7565b506000190190565b80820180821115611744576117446118b7565b60008261199f5761199f61190d565b50069056fea2646970667358221220637f0af9dc1748c0035c8f94b16a063153c018fb68befbc678a5e25113aa293264736f6c63430008140033",
  "linkReferences": {},
  "deployedLinkReferences": {}
}