{
  "_format": "hh-sol-artifact-1",
  "contractName": "GalileoJackpot",
  "sourceName": "contracts/GalileoJackpot.sol",
  "abi": [
    {
      "inputs": [],
      "stateMutability": "nonpayable",
      "type": "constructor"
    },
    {
      "inputs": [],
      "name": "InsufficientDeposit",
      "type": "error"
    },
    {
      "inputs": [],
      "name": "InvalidAddress",
      "type": "error"
    },
    {
      "inputs": [],
      "name": "NotEnoughTickets",
      "type": "error"
    },
    {
      "inputs": [
        {
          "internalType": "address",
          "name": "owner",
          "type": "address"
        }
      ],
      "name": "OwnableInvalidOwner",
      "type": "error"
    },
    {
      "inputs": [
        {
          "internalType": "address",
          "name": "account",
          "type": "address"
        }
      ],
      "name": "OwnableUnauthorizedAccount",
      "type": "error"
    },
    {
      "inputs": [],
      "name": "ReentrancyGuardReentrantCall",
      "type": "error"
    },
    {
      "inputs": [],
      "name": "RoundAlreadyCompleted",
      "type": "error"
    },
    {
      "inputs": [],
      "name": "RoundNotFinished",
      "type": "error"
    },
    {
      "inputs": [],
      "name": "RoundNotStarted",
      "type": "error"
    },
    {
      "inputs": [],
      "name": "TransferFailed",
      "type": "error"
    },
    {
      "inputs": [],
      "name": "ZeroRange",
      "type": "error"
    },
    {
      "anonymous": false,
      "inputs": [
        {
          "indexed": true,
          "internalType": "address",
          "name": "historyContract",
          "type": "address"
        }
      ],
      "name": "HistoryContractUpdated",
      "type": "event"
    },
    {
      "anonymous": false,
      "inputs": [
        {
          "indexed": true,
          "internalType": "uint256",
          "name": "roundId",
          "type": "uint256"
        },
        {
          "indexed": false,
          "internalType": "address",
          "name": "treasury",
          "type": "address"
        },
        {
          "indexed": false,
          "internalType": "uint256",
          "name": "amount",
          "type": "uint256"
        }
      ],
      "name": "OwnerFeeCollected",
      "type": "event"
    },
    {
      "anonymous": false,
      "inputs": [
        {
          "indexed": true,
          "internalType": "address",
          "name": "previousOwner",
          "type": "address"
        },
        {
          "indexed": true,
          "internalType": "address",
          "name": "newOwner",
          "type": "address"
        }
      ],
      "name": "OwnershipTransferred",
      "type": "event"
    },
    {
      "anonymous": false,
      "inputs": [
        {
          "indexed": true,
          "internalType": "uint256",
          "name": "roundId",
          "type": "uint256"
        },
        {
          "indexed": false,
          "internalType": "address",
          "name": "winner",
          "type": "address"
        },
        {
          "indexed": false,
          "internalType": "uint256",
          "name": "winningTicketId",
          "type": "uint256"
        },
        {
          "indexed": false,
          "internalType": "uint256",
          "name": "prize",
          "type": "uint256"
        }
      ],
      "name": "RoundCompleted",
      "type": "event"
    },
    {
      "anonymous": false,
      "inputs": [
        {
          "indexed": true,
          "internalType": "uint256",
          "name": "roundId",
          "type": "uint256"
        },
        {
          "indexed": false,
          "internalType": "uint256",
          "name": "startTime",
          "type": "uint256"
        },
        {
          "indexed": false,
          "internalType": "uint256",
          "name": "endTime",
          "type": "uint256"
        }
      ],
      "name": "RoundStarted",
      "type": "event"
    },
    {
      "anonymous": false,
      "inputs": [
        {
          "indexed": true,
          "internalType": "address",
          "name": "buyer",
          "type": "address"
        },
        {
          "indexed": false,
          "internalType": "uint256",
          "name": "ticketId",
          "type": "uint256"
        },
        {
          "indexed": false,
          "internalType": "uint256",
          "name": "roundId",
          "type": "uint256"
        },
        {
          "indexed": false,
          "internalType": "uint256",
          "name": "timestamp",
          "type": "uint256"
        }
      ],
      "name": "TicketPurchased",
      "type": "event"
    },
    {
      "inputs": [],
      "name": "MIN_DEPOSIT",
      "outputs": [
        {
          "internalType": "uint256",
          "name": "",
          "type": "uint256"
        }
      ],
      "stateMutability": "view",
      "type": "function"
    },
    {
      "inputs": [],
      "name": "OWNER_FEE_PERCENT",
      "outputs": [
        {
          "internalType": "uint256",
          "name": "",
          "type": "uint256"
        }
      ],
      "stateMutability": "view",
      "type": "function"
    },
    {
      "inputs": [],
      "name": "ROUND_DURATION",
      "outputs": [
        {
          "internalType": "uint256",
          "name": "",
          "type": "uint256"
        }
      ],
      "stateMutability": "view",
      "type": "function"
    },
    {
      "inputs": [],
      "name": "buyTickets",
      "outputs": [],
      "stateMutability": "payable",
      "type": "function"
    },
    {
      "inputs": [],
      "name": "completeRound",
      "outputs": [],
      "stateMutability": "nonpayable",
      "type": "function"
    },
    {
      "inputs": [],
      "name": "currentRoundId",
      "outputs": [
        {
          "internalType": "uint256",
          "name": "",
          "type": "uint256"
        }
      ],
      "stateMutability": "view",
      "type": "function"
    },
    {
      "inputs": [],
      "name": "emergencyCompleteRound",
      "outputs": [],
      "stateMutability": "nonpayable",
      "type": "function"
    },
    {
      "inputs": [],
      "name": "getCurrentRoundInfo",
      "outputs": [
        {
          "internalType": "uint256",
          "name": "id",
          "type": "uint256"
        },
        {
          "internalType": "uint256",
          "name": "startTime",
          "type": "uint256"
        },
        {
          "internalType": "uint256",
          "name": "endTime",
          "type": "uint256"
        },
        {
          "internalType": "uint256",
          "name": "totalPool",
          "type": "uint256"
        },
        {
          "internalType": "uint256",
          "name": "numTickets",
          "type": "uint256"
        },
        {
          "internalType": "bool",
          "name": "isActive",
          "type": "bool"
        },
        {
          "internalType": "uint256",
          "name": "timeLeft",
          "type": "uint256"
        }
      ],
      "stateMutability": "view",
      "type": "function"
    },
    {
      "inputs": [
        {
          "internalType": "uint256",
          "name": "limit",
          "type": "uint256"
        }
      ],
      "name": "getRoundHistory",
      "outputs": [
        {
          "components": [
            {
              "internalType": "uint256",
              "name": "id",
              "type": "uint256"
            },
            {
              "internalType": "uint256",
              "name": "startTime",
              "type": "uint256"
            },
            {
              "internalType": "uint256",
              "name": "endTime",
              "type": "uint256"
            },
            {
              "internalType": "uint256",
              "name": "totalPool",
              "type": "uint256"
            },
            {
              "internalType": "address",
              "name": "winner",
              "type": "address"
            },
            {
              "internalType": "uint256",
              "name": "winningTicketId",
              "type": "uint256"
            },
            {
              "internalType": "bool",
              "name": "completed",
              "type": "bool"
            }
          ],
          "internalType": "struct GalileoJackpot.Round[]",
          "name": "",
          "type": "tuple[]"
        }
      ],
      "stateMutability": "view",
      "type": "function"
    },
    {
      "inputs": [
        {
          "internalType": "uint256",
          "name": "roundId",
          "type": "uint256"
        }
      ],
      "name": "getRoundParticipantsWithCounts",
      "outputs": [
        {
          "internalType": "address[]",
          "name": "participants",
          "type": "address[]"
        },
        {
          "internalType": "uint256[]",
          "name": "ticketCounts",
          "type": "uint256[]"
        }
      ],
      "stateMutability": "view",
      "type": "function"
    },
    {
      "inputs": [
        {
          "internalType": "uint256",
          "name": "roundId",
          "type": "uint256"
        }
      ],
      "name": "getRoundTickets",
      "outputs": [
        {
          "internalType": "uint256[]",
          "name": "",
          "type": "uint256[]"
        }
      ],
      "stateMutability": "view",
      "type": "function"
    },
    {
      "inputs": [
        {
          "internalType": "address",
          "name": "user",
          "type": "address"
        }
      ],
      "name": "getUserTickets",
      "outputs": [
        {
          "internalType": "uint256[]",
          "name": "",
          "type": "uint256[]"
        }
      ],
      "stateMutability": "view",
      "type": "function"
    },
    {
      "inputs": [],
      "name": "historyContract",
      "outputs": [
        {
          "internalType": "address",
          "name": "",
          "type": "address"
        }
      ],
      "stateMutability": "view",
      "type": "function"
    },
    {
      "inputs": [],
      "name": "owner",
      "outputs": [
        {
          "internalType": "address",
          "name": "",
          "type": "address"
        }
      ],
      "stateMutability": "view",
      "type": "function"
    },
    {
      "inputs": [],
      "name": "renounceOwnership",
      "outputs": [],
      "stateMutability": "nonpayable",
      "type": "function"
    },
    {
      "inputs": [
        {
          "internalType": "uint256",
          "name": "",
          "type": "uint256"
        },
        {
          "internalType": "uint256",
          "name": "",
          "type": "uint256"
        }
      ],
      "name": "roundTickets",
      "outputs": [
        {
          "internalType": "uint256",
          "name": "",
          "type": "uint256"
        }
      ],
      "stateMutability": "view",
      "type": "function"
    },
    {
      "inputs": [
        {
          "internalType": "uint256",
          "name": "",
          "type": "uint256"
        }
      ],
      "name": "rounds",
      "outputs": [
        {
          "internalType": "uint256",
          "name": "id",
          "type": "uint256"
        },
        {
          "internalType": "uint256",
          "name": "startTime",
          "type": "uint256"
        },
        {
          "internalType": "uint256",
          "name": "endTime",
          "type": "uint256"
        },
        {
          "internalType": "uint256",
          "name": "totalPool",
          "type": "uint256"
        },
        {
          "internalType": "address",
          "name": "winner",
          "type": "address"
        },
        {
          "internalType": "uint256",
          "name": "winningTicketId",
          "type": "uint256"
        },
        {
          "internalType": "bool",
          "name": "completed",
          "type": "bool"
        }
      ],
      "stateMutability": "view",
      "type": "function"
    },
    {
      "inputs": [
        {
          "internalType": "address",
          "name": "_historyContract",
          "type": "address"
        }
      ],
      "name": "setHistoryContract",
      "outputs": [],
      "stateMutability": "nonpayable",
      "type": "function"
    },
    {
      "inputs": [
        {
          "internalType": "address",
          "name": "_treasury",
          "type": "address"
        }
      ],
      "name": "setTreasury",
      "outputs": [],
      "stateMutability": "nonpayable",
      "type": "function"
    },
    {
      "inputs": [],
      "name": "startRoundManually",
      "outputs": [],
      "stateMutability": "nonpayable",
      "type": "function"
    },
    {
      "inputs": [],
      "name": "ticketCounter",
      "outputs": [
        {
          "internalType": "uint256",
          "name": "",
          "type": "uint256"
        }
      ],
      "stateMutability": "view",
      "type": "function"
    },
    {
      "inputs": [
        {
          "internalType": "uint256",
          "name": "",
          "type": "uint256"
        }
      ],
      "name": "tickets",
      "outputs": [
        {
          "internalType": "uint256",
          "name": "id",
          "type": "uint256"
        },
        {
          "internalType": "address",
          "name": "owner",
          "type": "address"
        },
        {
          "internalType": "uint256",
          "name": "roundId",
          "type": "uint256"
        },
        {
          "internalType": "uint256",
          "name": "timestamp",
          "type": "uint256"
        }
      ],
      "stateMutability": "view",
      "type": "function"
    },
    {
      "inputs": [
        {
          "internalType": "address",
          "name": "newOwner",
          "type": "address"
        }
      ],
      "name": "transferOwnership",
      "outputs": [],
      "stateMutability": "nonpayable",
      "type": "function"
    },
    {
      "inputs": [],
      "name": "treasury",
      "outputs": [
        {
          "internalType": "address",
          "name": "",
          "type": "address"
        }
      ],
      "stateMutability": "view",
      "type": "function"
    },
    {
      "inputs": [
        {
          "internalType": "address",
          "name": "",
          "type": "address"
        },
        {
          "internalType": "uint256",
          "name": "",
          "type": "uint256"
        }
      ],
      "name": "userTickets",
      "outputs": [
        {
          "internalType": "uint256",
          "name": "",
          "type": "uint256"
        }
      ],
      "stateMutability": "view",
      "type": "function"
    }
  ],
  "bytecode": "0x60806040526001600255600060035534801561001a57600080fd5b50338061004157604051631e4fbdf760e01b81526000600482015260240160405180910390fd5b61004a81610118565b5060018080556040805160e0810182526002805480835260006020808501828152858701838152606087018481526080880185815260a0890186815260c08a0187815297875260049586905299862098518955925199880199909955519486019490945595516003850155915194830180546001600160a01b0319166001600160a01b039687161790559251600583015591516006909101805460ff19169115159190911790555416600880546001600160a01b0319166001600160a01b0392909216919091179055610168565b600080546001600160a01b038381166001600160a01b0319831681178455604051919092169283917f8be0079c531659141344cd1fd0a4f28419497f9722a3daafe3b4186f6b6457e09190a35050565b611e34806101776000396000f3fe6080604052600436106101665760003560e01c80638c65c81f116100d1578063c81998261161008a578063cf260baf11610064578063cf260baf146104f9578063e1e158a514610519578063f0f4426014610534578063f2fde38b1461055457600080fd5b8063c8199826146104bc578063cc158921146104c4578063cdfdf7e2146104e457600080fd5b80638c65c81f146103815780638da5cb5b146104265780639506a4ec146104445780639bb3503d146104715780639cbe5efd14610491578063a8a3221e146104a757600080fd5b8063715018a611610123578063715018a6146102be5780637169c711146102d5578063747dff42146102f55780638274627f146103415780638be48547146103565780638c4d59d01461036b57600080fd5b80630484a22f1461016b57806304ad675d146101a15780631e2d0400146101c157806350b44712146101ef57806361d027b3146102635780636641ea081461029b575b600080fd5b34801561017757600080fd5b5061018b610186366004611b56565b610574565b6040516101989190611bac565b60405180910390f35b3480156101ad57600080fd5b5061018b6101bc366004611bbf565b6105e0565b3480156101cd57600080fd5b506101e16101dc366004611bbf565b610640565b604051610198929190611bd8565b3480156101fb57600080fd5b5061023b61020a366004611bbf565b600560205260009081526040902080546001820154600283015460039093015491926001600160a01b039091169184565b604080519485526001600160a01b039093166020850152918301526060820152608001610198565b34801561026f57600080fd5b50600854610283906001600160a01b031681565b6040516001600160a01b039091168152602001610198565b3480156102a757600080fd5b506102b0607881565b604051908152602001610198565b3480156102ca57600080fd5b506102d36109ea565b005b3480156102e157600080fd5b506102b06102f0366004611c38565b6109fe565b34801561030157600080fd5b5061030a610a2f565b6040805197885260208801969096529486019390935260608501919091526080840152151560a083015260c082015260e001610198565b34801561034d57600080fd5b506102d3610ad2565b34801561036257600080fd5b506102d3610efb565b34801561037757600080fd5b506102b060035481565b34801561038d57600080fd5b506103e661039c366004611bbf565b600460208190526000918252604090912080546001820154600283015460038401549484015460058501546006909501549395929491936001600160a01b03909116919060ff1687565b6040805197885260208801969096529486019390935260608501919091526001600160a01b0316608084015260a0830152151560c082015260e001610198565b34801561043257600080fd5b506000546001600160a01b0316610283565b34801561045057600080fd5b5061046461045f366004611bbf565b611350565b6040516101989190611c5a565b34801561047d57600080fd5b506102d361048c366004611b56565b61153e565b34801561049d57600080fd5b506102b060025481565b3480156104b357600080fd5b506102b0600581565b6102d36115b7565b3480156104d057600080fd5b50600954610283906001600160a01b031681565b3480156104f057600080fd5b506102d3611845565b34801561050557600080fd5b506102b0610514366004611ce7565b61193b565b34801561052557600080fd5b506102b0662386f26fc1000081565b34801561054057600080fd5b506102d361054f366004611b56565b611957565b34801561056057600080fd5b506102d361056f366004611b56565b6119a8565b6001600160a01b0381166000908152600760209081526040918290208054835181840281018401909452808452606093928301828280156105d457602002820191906000526020600020905b8154815260200190600101908083116105c0575b50505050509050919050565b6000818152600660209081526040918290208054835181840281018401909452808452606093928301828280156105d457602002820191906000526020600020908154815260200190600101908083116105c05750505050509050919050565b6060806000600660008581526020019081526020016000208054806020026020016040519081016040528092919081815260200182805480156106a257602002820191906000526020600020905b81548152602001906001019080831161068e575b5050505050905080516000036106d257505060408051600080825260208201908152818301909252939092509050565b805160008167ffffffffffffffff8111156106ef576106ef611d11565b604051908082528060200260200182016040528015610718578160200160208202803683370190505b50905060008267ffffffffffffffff81111561073657610736611d11565b60405190808252806020026020018201604052801561075f578160200160208202803683370190505b5090506000805b85518110156108b45760006005600088848151811061078757610787611d27565b6020026020010151815260200190815260200160002060010160009054906101000a90046001600160a01b031690506000805b8481101561083957826001600160a01b03168782815181106107de576107de611d27565b60200260200101516001600160a01b0316036108275785818151811061080657610806611d27565b60200260200101805180919061081b90611d53565b90525060019150610839565b8061083181611d53565b9150506107ba565b508061089f578186858151811061085257610852611d27565b60200260200101906001600160a01b031690816001600160a01b031681525050600185858151811061088657610886611d27565b60209081029190910101528361089b81611d53565b9450505b505080806108ac90611d53565b915050610766565b508067ffffffffffffffff8111156108ce576108ce611d11565b6040519080825280602002602001820160405280156108f7578160200160208202803683370190505b5096508067ffffffffffffffff81111561091357610913611d11565b60405190808252806020026020018201604052801561093c578160200160208202803683370190505b50955060005b818110156109df5783818151811061095c5761095c611d27565b602002602001015188828151811061097657610976611d27565b60200260200101906001600160a01b031690816001600160a01b0316815250508281815181106109a8576109a8611d27565b60200260200101518782815181106109c2576109c2611d27565b6020908102919091010152806109d781611d53565b915050610942565b505050505050915091565b6109f26119eb565b6109fc6000611a18565b565b60066020528160005260406000208181548110610a1a57600080fd5b90600052602060002001600091509150505481565b60008060008060008060008060046000600254815260200190815260200160002090506000808260010154118015610a6c5750600682015460ff16155b90506000818015610a805750826002015442105b15610a9857428360020154610a959190611d6c565b90505b825460018401546002808601546003909601549054600090815260066020526040902054929d919c50949a50939850965090945092509050565b610ada6119eb565b6002546000908152600460205260409020600681015460ff1615610b1157604051633e3a941b60e11b815260040160405180910390fd5b8060010154600003610b36576040516323a71b8760e21b815260040160405180910390fd5b600280546000908152600660205260409020541015610b685760405163a8d8f34960e01b815260040160405180910390fd5b6006808201805460ff1916600117905560025460009081526020919091526040812054610b9490611a68565b905060006006600060025481526020019081526020016000208281548110610bbe57610bbe611d27565b600091825260208083209091015480835260059182905260408320600101546004870180546001600160a01b0319166001600160a01b03909216918217905586830182905560038701549194509291606491610c1a9190611d7f565b610c249190611dac565b90506000818660030154610c389190611d6c565b6009549091506001600160a01b031615610cc4576009548654604051635ce63c7560e11b815260048101919091526001600160a01b03858116602483015260448201879052606482018490529091169063b9cc78ea90608401600060405180830381600087803b158015610cab57600080fd5b505af1158015610cbf573d6000803e3d6000fd5b505050505b60028054906000610cd483611d53565b90915550506040805160e0810182526002805480835260006020808501828152858701838152606087018481526080880185815260a0890186815260c08a018781529787526004958690528a872099518a55935160018a015591519688019690965594516003870155935190850180546001600160a01b0319166001600160a01b039283161790559251600585015590516006909301805460ff191693151593909317909255600854925191921690849060006040518083038185875af1925050503d8060008114610dc2576040519150601f19603f3d011682016040523d82523d6000602084013e610dc7565b606091505b5050905080610de9576040516312171d8360e31b815260040160405180910390fd5b6000846001600160a01b03168360405160006040518083038185875af1925050503d8060008114610e36576040519150601f19603f3d011682016040523d82523d6000602084013e610e3b565b606091505b5050905080610e5d576040516312171d8360e31b815260040160405180910390fd5b8754600854604080516001600160a01b039092168252602082018790527fed1c7c79dbd4938e6495c716b5f244d9ed315871a4455a1f46fbbf8090b43cc9910160405180910390a28754604080516001600160a01b0388168152602081018990529081018590527f1901cd171c04e8157b30c71ff94388f4eda84b287b8e58b357b408fe85916da09060600160405180910390a25050505050505050565b610f03611afb565b6002546000908152600460205260409020600681015460ff1615610f3a57604051633e3a941b60e11b815260040160405180910390fd5b8060010154600003610f5f576040516323a71b8760e21b815260040160405180910390fd5b8060020154421015610f84576040516358e2bd7f60e01b815260040160405180910390fd5b600280546000908152600660205260409020541015610fb65760405163a8d8f34960e01b815260040160405180910390fd5b6006808201805460ff1916600117905560025460009081526020919091526040812054610fe290611a68565b90506000600660006002548152602001908152602001600020828154811061100c5761100c611d27565b600091825260208083209091015480835260059182905260408320600101546004870180546001600160a01b0319166001600160a01b039092169182179055868301829055600387015491945092916064916110689190611d7f565b6110729190611dac565b905060008186600301546110869190611d6c565b6009549091506001600160a01b031615611112576009548654604051635ce63c7560e11b815260048101919091526001600160a01b03858116602483015260448201879052606482018490529091169063b9cc78ea90608401600060405180830381600087803b1580156110f957600080fd5b505af115801561110d573d6000803e3d6000fd5b505050505b6002805490600061112283611d53565b90915550506040805160e0810182526002805480835260006020808501828152858701838152606087018481526080880185815260a0890186815260c08a018781529787526004958690528a872099518a55935160018a015591519688019690965594516003870155935190850180546001600160a01b0319166001600160a01b039283161790559251600585015590516006909301805460ff191693151593909317909255600854925191921690849060006040518083038185875af1925050503d8060008114611210576040519150601f19603f3d011682016040523d82523d6000602084013e611215565b606091505b5050905080611237576040516312171d8360e31b815260040160405180910390fd5b6000846001600160a01b03168360405160006040518083038185875af1925050503d8060008114611284576040519150601f19603f3d011682016040523d82523d6000602084013e611289565b606091505b50509050806112ab576040516312171d8360e31b815260040160405180910390fd5b8754600854604080516001600160a01b039092168252602082018790527fed1c7c79dbd4938e6495c716b5f244d9ed315871a4455a1f46fbbf8090b43cc9910160405180910390a28754604080516001600160a01b0388168152602081018990529081018590527f1901cd171c04e8157b30c71ff94388f4eda84b287b8e58b357b408fe85916da09060600160405180910390a250505050505050506109fc60018055565b6060600060015b60025481101561139b5760008181526004602052604090206006015460ff1615611389578161138581611d53565b9250505b8061139381611d53565b915050611357565b5060006113a88483611b25565b905060008167ffffffffffffffff8111156113c5576113c5611d11565b60405190808252806020026020018201604052801561144157816020015b61142e6040518060e001604052806000815260200160008152602001600081526020016000815260200160006001600160a01b03168152602001600081526020016000151581525090565b8152602001906001900390816113e35790505b50905060008060016002546114569190611d6c565b90505b60008111801561146857508382105b156115335760008181526004602052604090206006015460ff161561152157600081815260046020818152604092839020835160e0810185528154815260018201549281019290925260028101549382019390935260038301546060820152908201546001600160a01b03166080820152600582015460a082015260069091015460ff16151560c0820152835184908490811061150757611507611d27565b6020026020010181905250818061151d90611d53565b9250505b8061152b81611dc0565b915050611459565b509095945050505050565b6115466119eb565b6001600160a01b03811661156d5760405163e6c4247b60e01b815260040160405180910390fd5b600980546001600160a01b0319166001600160a01b0383169081179091556040517f0e718441e2c8ed8399d302c4091ea86c90cd23783c3c1f299b278a8eefa8fd1490600090a250565b6115bf611afb565b662386f26fc100003410156115e75760405163070f6eed60e11b815260040160405180910390fd5b60025460009081526004602052604090206006015460ff161561161d57604051633e3a941b60e11b815260040160405180910390fd5b6000611630662386f26fc1000034611dac565b905060005b81811015611751576003805490600061164d83611d53565b9091555050604080516080810182526003805480835233602080850182815260028054878901908152426060808a018281526000988952600587528b89209a518b5594516001808c0180546001600160a01b0319166001600160a01b039093169290921790915592518a8501559351988801989098558154865260068452888620875481548084018355918852858820909101558486526007845288862087548154928301825590875295849020019490945593549254865193845290830152938101929092527f96541f70da731142b18e96f1def4d2a7733deb7d784723106d52c1d906d4c67a910160405180910390a28061174981611d53565b915050611635565b5060025460009081526004602052604081206003018054349290611776908490611dd7565b909155505060028054600090815260066020526040902054108015906117ae5750600254600090815260046020526040902060010154155b1561183b5760025460009081526004602052604090204260019091018190556117d990607890611dd7565b6002805460009081526004602090815260408083208401949094558254808352918490206001810154930154845193845290830152917fa359b664a68acd8839e42112eb50eff3408165e15074fde89ddb58a0db2e691d910160405180910390a25b506109fc60018055565b61184d6119eb565b6002546000908152600460205260409020600101541561188057604051633e3a941b60e11b815260040160405180910390fd5b6002805460009081526006602052604090205410156118b25760405163a8d8f34960e01b815260040160405180910390fd5b60025460009081526004602052604090204260019091018190556118d890607890611dd7565b6002805460009081526004602090815260408083208401949094558254808352918490206001810154930154845193845290830152917fa359b664a68acd8839e42112eb50eff3408165e15074fde89ddb58a0db2e691d910160405180910390a2565b60076020528160005260406000208181548110610a1a57600080fd5b61195f6119eb565b6001600160a01b0381166119865760405163e6c4247b60e01b815260040160405180910390fd5b600880546001600160a01b0319166001600160a01b0392909216919091179055565b6119b06119eb565b6001600160a01b0381166119df57604051631e4fbdf760e01b8152600060048201526024015b60405180910390fd5b6119e881611a18565b50565b6000546001600160a01b031633146109fc5760405163118cdaa760e01b81523360048201526024016119d6565b600080546001600160a01b038381166001600160a01b0319831681178455604051919092169283917f8be0079c531659141344cd1fd0a4f28419497f9722a3daafe3b4186f6b6457e09190a35050565b600081600003611a8b576040516305a8a1a960e11b815260040160405180910390fd5b60004244611a9a600143611d6c565b6040805160208101949094528301919091524060608083019190915233901b6bffffffffffffffffffffffff1916608082015260940160408051601f1981840301815291905280516020909101209050611af48382611dea565b9392505050565b600260015403611b1e57604051633ee5aeb560e01b815260040160405180910390fd5b6002600155565b60008282188284100282185b90505b92915050565b80356001600160a01b0381168114611b5157600080fd5b919050565b600060208284031215611b6857600080fd5b611b3182611b3a565b600081518084526020808501945080840160005b83811015611ba157815187529582019590820190600101611b85565b509495945050505050565b602081526000611b316020830184611b71565b600060208284031215611bd157600080fd5b5035919050565b604080825283519082018190526000906020906060840190828701845b82811015611c1a5781516001600160a01b031684529284019290840190600101611bf5565b50505083810382850152611c2e8186611b71565b9695505050505050565b60008060408385031215611c4b57600080fd5b50508035926020909101359150565b602080825282518282018190526000919060409081850190868401855b82811015611cda5781518051855286810151878601528581015186860152606080820151908601526080808201516001600160a01b03169086015260a0808201519086015260c09081015115159085015260e09093019290850190600101611c77565b5091979650505050505050565b60008060408385031215611cfa57600080fd5b611d0383611b3a565b946020939093013593505050565b634e487b7160e01b600052604160045260246000fd5b634e487b7160e01b600052603260045260246000fd5b634e487b7160e01b600052601160045260246000fd5b600060018201611d6557611d65611d3d565b5060010190565b81810381811115611b3457611b34611d3d565b8082028115828204841417611b3457611b34611d3d565b634e487b7160e01b600052601260045260246000fd5b600082611dbb57611dbb611d96565b500490565b600081611dcf57611dcf611d3d565b506000190190565b80820180821115611b3457611b34611d3d565b600082611df957611df9611d96565b50069056fea26469706673582212201c4011973e8c8c794f5a3a470b96fc2e8f680da9cc6875fb06f091296639e66b64736f6c63430008140033",
  "linkReferences": {},
  "deployedLinkReferences": {}
}