{
  "_format": "hh-sol-artifact-1",
  "contractName": "GalileoJackpotHistory",
  "sourceName": "contracts/GalileoJackpotHistory.sol",
  "abi": [
    {
      "inputs": [],
      "stateMutability": "nonpayable",
      "type": "constructor"
    },
    {
      "inputs": [
        {
          "internalType": "address",
          "name": "owner",
          "type": "address"
        }
      ],
      "name": "OwnableInvalidOwner",
      "type": "error"
    },
    {
      "inputs": [
        {
          "internalType": "address",
          "name": "account",
          "type": "address"
        }
      ],
      "name": "OwnableUnauthorizedAccount",
      "type": "error"
    },
    {
      "inputs": [],
      "name": "UnauthorizedAccess",
      "type": "error"
    },
    {
      "anonymous": false,
      "inputs": [
        {
          "indexed": true,
          "internalType": "address",
          "name": "previousOwner",
          "type": "address"
        },
        {
          "indexed": true,
          "internalType": "address",
          "name": "newOwner",
          "type": "address"
        }
      ],
      "name": "OwnershipTransferred",
      "type": "event"
    },
    {
      "anonymous": false,
      "inputs": [
        {
          "indexed": true,
          "internalType": "uint256",
          "name": "roundId",
          "type": "uint256"
        },
        {
          "indexed": true,
          "internalType": "address",
          "name": "winner",
          "type": "address"
        },
        {
          "indexed": false,
          "internalType": "uint256",
          "name": "winningTicketId",
          "type": "uint256"
        },
        {
          "indexed": false,
          "internalType": "uint256",
          "name": "prizeAmount",
          "type": "uint256"
        }
      ],
      "name": "WinnerRecorded",
      "type": "event"
    },
    {
      "inputs": [],
      "name": "getTotalWinners",
      "outputs": [
        {
          "internalType": "uint256",
          "name": "",
          "type": "uint256"
        }
      ],
      "stateMutability": "view",
      "type": "function"
    },
    {
      "inputs": [
        {
          "internalType": "address",
          "name": "winnerAddress",
          "type": "address"
        }
      ],
      "name": "getWinnerRounds",
      "outputs": [
        {
          "internalType": "uint256[]",
          "name": "",
          "type": "uint256[]"
        }
      ],
      "stateMutability": "view",
      "type": "function"
    },
    {
      "inputs": [
        {
          "internalType": "uint256",
          "name": "offset",
          "type": "uint256"
        },
        {
          "internalType": "uint256",
          "name": "limit",
          "type": "uint256"
        }
      ],
      "name": "getWinners",
      "outputs": [
        {
          "components": [
            {
              "internalType": "uint256",
              "name": "roundId",
              "type": "uint256"
            },
            {
              "internalType": "address",
              "name": "winner",
              "type": "address"
            },
            {
              "internalType": "uint256",
              "name": "winningTicketId",
              "type": "uint256"
            },
            {
              "internalType": "uint256",
              "name": "prizeAmount",
              "type": "uint256"
            },
            {
              "internalType": "uint256",
              "name": "timestamp",
              "type": "uint256"
            }
          ],
          "internalType": "struct GalileoJackpotHistory.WinnerInfo[]",
          "name": "",
          "type": "tuple[]"
        }
      ],
      "stateMutability": "view",
      "type": "function"
    },
    {
      "inputs": [
        {
          "internalType": "address",
          "name": "winnerAddress",
          "type": "address"
        }
      ],
      "name": "isWinner",
      "outputs": [
        {
          "internalType": "bool",
          "name": "",
          "type": "bool"
        }
      ],
      "stateMutability": "view",
      "type": "function"
    },
    {
      "inputs": [],
      "name": "jackpotContract",
      "outputs": [
        {
          "internalType": "address",
          "name": "",
          "type": "address"
        }
      ],
      "stateMutability": "view",
      "type": "function"
    },
    {
      "inputs": [],
      "name": "owner",
      "outputs": [
        {
          "internalType": "address",
          "name": "",
          "type": "address"
        }
      ],
      "stateMutability": "view",
      "type": "function"
    },
    {
      "inputs": [
        {
          "internalType": "uint256",
          "name": "roundId",
          "type": "uint256"
        },
        {
          "internalType": "address",
          "name": "winner",
          "type": "address"
        },
        {
          "internalType": "uint256",
          "name": "winningTicketId",
          "type": "uint256"
        },
        {
          "internalType": "uint256",
          "name": "prizeAmount",
          "type": "uint256"
        }
      ],
      "name": "recordWinner",
      "outputs": [],
      "stateMutability": "nonpayable",
      "type": "function"
    },
    {
      "inputs": [],
      "name": "renounceOwnership",
      "outputs": [],
      "stateMutability": "nonpayable",
      "type": "function"
    },
    {
      "inputs": [
        {
          "internalType": "uint256",
          "name": "",
          "type": "uint256"
        }
      ],
      "name": "roundToWinnerIndex",
      "outputs": [
        {
          "internalType": "uint256",
          "name": "",
          "type": "uint256"
        }
      ],
      "stateMutability": "view",
      "type": "function"
    },
    {
      "inputs": [
        {
          "internalType": "address",
          "name": "_jackpotContract",
          "type": "address"
        }
      ],
      "name": "setJackpotContract",
      "outputs": [],
      "stateMutability": "nonpayable",
      "type": "function"
    },
    {
      "inputs": [
        {
          "internalType": "address",
          "name": "newOwner",
          "type": "address"
        }
      ],
      "name": "transferOwnership",
      "outputs": [],
      "stateMutability": "nonpayable",
      "type": "function"
    },
    {
      "inputs": [
        {
          "internalType": "address",
          "name": "",
          "type": "address"
        },
        {
          "internalType": "uint256",
          "name": "",
          "type": "uint256"
        }
      ],
      "name": "winnerRounds",
      "outputs": [
        {
          "internalType": "uint256",
          "name": "",
          "type": "uint256"
        }
      ],
      "stateMutability": "view",
      "type": "function"
    },
    {
      "inputs": [
        {
          "internalType": "uint256",
          "name": "",
          "type": "uint256"
        }
      ],
      "name": "winners",
      "outputs": [
        {
          "internalType": "uint256",
          "name": "roundId",
          "type": "uint256"
        },
        {
          "internalType": "address",
          "name": "winner",
          "type": "address"
        },
        {
          "internalType": "uint256",
          "name": "winningTicketId",
          "type": "uint256"
        },
        {
          "internalType": "uint256",
          "name": "prizeAmount",
          "type": "uint256"
        },
        {
          "internalType": "uint256",
          "name": "timestamp",
          "type": "uint256"
        }
      ],
      "stateMutability": "view",
      "type": "function"
    }
  ],
  "bytecode": "0x608060405234801561001057600080fd5b50338061003757604051631e4fbdf760e01b81526000600482015260240160405180910390fd5b61004081610046565b50610096565b600080546001600160a01b038381166001600160a01b0319831681178455604051919092169283917f8be0079c531659141344cd1fd0a4f28419497f9722a3daafe3b4186f6b6457e09190a35050565b610a4c806100a56000396000f3fe608060405234801561001057600080fd5b50600436106100cf5760003560e01c80639d9ca28d1161008c578063ceeca98411610066578063ceeca98414610222578063ed8939401461022a578063f2fde38b1461023d578063f489fc791461025057600080fd5b80639d9ca28d14610191578063a2fb1175146101cc578063b9cc78ea1461020f57600080fd5b80630c9350e9146100d4578063220002e0146100fd57806328fd8fc41461012b5780634255e8081461014b578063715018a6146101765780638da5cb5b14610180575b600080fd5b6100e76100e2366004610818565b610263565b6040516100f4919061083a565b60405180910390f35b61011d61010b36600461087e565b60026020526000908152604090205481565b6040519081526020016100f4565b61013e610139366004610897565b6102cf565b6040516100f491906108b9565b60045461015e906001600160a01b031681565b6040516001600160a01b0390911681526020016100f4565b61017e61045f565b005b6000546001600160a01b031661015e565b6101bc61019f366004610818565b6001600160a01b0316600090815260036020526040902054151590565b60405190151581526020016100f4565b6101df6101da36600461087e565b610473565b604080519586526001600160a01b039094166020860152928401919091526060830152608082015260a0016100f4565b61017e61021d366004610930565b6104be565b60015461011d565b61017e610238366004610818565b6106a9565b61017e61024b366004610818565b6106d3565b61011d61025e36600461096b565b610716565b6001600160a01b0381166000908152600360209081526040918290208054835181840281018401909452808452606093928301828280156102c357602002820191906000526020600020905b8154815260200190600101908083116102af575b50505050509050919050565b60015460609080841061031657604080516000808252602082019092529061030d565b6102fa6107c4565b8152602001906001900390816102f25790505b50915050610459565b60008161032385876109c1565b1161032e5783610338565b61033885836109d4565b905060008167ffffffffffffffff81111561035557610355610995565b60405190808252806020026020018201604052801561038e57816020015b61037b6107c4565b8152602001906001900390816103735790505b50905060005b828110156104535760016103a882896109c1565b6103b36001876109d4565b6103bd91906109d4565b815481106103cd576103cd6109e7565b60009182526020918290206040805160a08101825260059093029091018054835260018101546001600160a01b0316938301939093526002830154908201526003820154606082015260049091015460808201528251839083908110610435576104356109e7565b6020026020010181905250808061044b906109fd565b915050610394565b50925050505b92915050565b610467610747565b6104716000610774565b565b6001818154811061048357600080fd5b6000918252602090912060059091020180546001820154600283015460038401546004909401549294506001600160a01b0390911692909185565b6004546001600160a01b031633148015906104e457506000546001600160a01b03163314155b1561050257604051631a27eac360e11b815260040160405180910390fd5b6040805160a0810182528581526001600160a01b0385811660208301908152928201858152606083018581524260808501908152600180548082018255600082905286517fb10e2d527612073b26eecdfd717e6a320cf44b4afac2b0732d9fcbe2b7fa0cf660059092029182015596517fb10e2d527612073b26eecdfd717e6a320cf44b4afac2b0732d9fcbe2b7fa0cf7880180546001600160a01b031916919096161790945591517fb10e2d527612073b26eecdfd717e6a320cf44b4afac2b0732d9fcbe2b7fa0cf8860155517fb10e2d527612073b26eecdfd717e6a320cf44b4afac2b0732d9fcbe2b7fa0cf9850155517fb10e2d527612073b26eecdfd717e6a320cf44b4afac2b0732d9fcbe2b7fa0cfa909301929092558154909161062a916109d4565b6000868152600260209081526040808320939093556001600160a01b038716808352600382528383208054600181018255908452928290209092018890558251868152908101859052909187917f7ae78830003cfb028adc9815a8e7f9d20dc68d9f8bd0130547caf8ce89550e4a910160405180910390a35050505050565b6106b1610747565b600480546001600160a01b0319166001600160a01b0392909216919091179055565b6106db610747565b6001600160a01b03811661070a57604051631e4fbdf760e01b8152600060048201526024015b60405180910390fd5b61071381610774565b50565b6003602052816000526040600020818154811061073257600080fd5b90600052602060002001600091509150505481565b6000546001600160a01b031633146104715760405163118cdaa760e01b8152336004820152602401610701565b600080546001600160a01b038381166001600160a01b0319831681178455604051919092169283917f8be0079c531659141344cd1fd0a4f28419497f9722a3daafe3b4186f6b6457e09190a35050565b6040518060a001604052806000815260200160006001600160a01b031681526020016000815260200160008152602001600081525090565b80356001600160a01b038116811461081357600080fd5b919050565b60006020828403121561082a57600080fd5b610833826107fc565b9392505050565b6020808252825182820181905260009190848201906040850190845b8181101561087257835183529284019291840191600101610856565b50909695505050505050565b60006020828403121561089057600080fd5b5035919050565b600080604083850312156108aa57600080fd5b50508035926020909101359150565b602080825282518282018190526000919060409081850190868401855b8281101561092357815180518552868101516001600160a01b0316878601528581015186860152606080820151908601526080908101519085015260a090930192908501906001016108d6565b5091979650505050505050565b6000806000806080858703121561094657600080fd5b84359350610956602086016107fc565b93969395505050506040820135916060013590565b6000806040838503121561097e57600080fd5b610987836107fc565b946020939093013593505050565b634e487b7160e01b600052604160045260246000fd5b634e487b7160e01b600052601160045260246000fd5b80820180821115610459576104596109ab565b81810381811115610459576104596109ab565b634e487b7160e01b600052603260045260246000fd5b600060018201610a0f57610a0f6109ab565b506001019056fea26469706673582212201c021fc1892f3a91fbd2d5482bd7685b5bb9ccdde80be94bd2a6af2a5c380ebe64736f6c63430008140033",
  "linkReferences": {},
  "deployedLinkReferences": {}
}